:020000040000FA
:100000000C9462000C948A000C948A000C948A0070
:100010000C948A000C948A000C948A000C948A0038
:100020000C948A000C948A000C948A000C948A0028
:100030000C948A000C948A000C948A000C948A0018
:100040000C946F060C948A000C948A000C948A001D
:100050000C948A000C948A000C948A000C948A00F8
:100060000C94B9060C948A000000000023002600BE
:10007000290000000008000201000003040700003E
:1000800000000000000000000000250028002B00F8
:1000900000000000240027002A00040404040404D3
:1000A0000404020202020202030303030303010227
:1000B00004081020408001020408102001020408F6
:1000C0001020D80711241FBECFEFD8E0DEBFCDBF70
:1000D00011E0A0E0B1E0E4E5F4E102C005900D928A
:1000E000A638B107D9F722E0A6E8B1E001C01D9219
:1000F000AF36B207E1F710E0C2E6D0E004C02197C6
:10010000FE010E94220AC136D107C9F70E94F807F2
:100110000C94280A0C94000090E0FC01E255FF4F7B
:10012000249186569F4FFC018491882399F090E09A
:10013000880F991FFC01E057FF4FA591B491FC0176
:10014000EA57FF4F859194918FB7F894EC91E22B89
:10015000EC938FBF0895833081F028F4813099F0BB
:100160008230A9F008958730A9F08830C9F0843032
:10017000B1F4809180008F7D03C0809180008F77E3
:1001800080938000089584B58F7784BD089584B5E9
:100190008F7DFBCF8091B0008F778093B000089562
:1001A0008091B0008F7DF9CFCF93DF93282F30E07F
:1001B000F901EE58FF4F8491F901E255FF4FD491B8
:1001C000F901E656FF4FC491CC23A1F081110E94A2
:1001D000AB00EC2FF0E0EE0FFF1FE859FF4FA591A9
:1001E000B491EC91ED2381E090E009F480E0DF919F
:1001F000CF91089580E090E0FACF1F93CF93DF93E3
:10020000282F30E0F901EE58FF4F8491F901E255B3
:10021000FF4FD491F901E656FF4FC491CC23A9F0CA
:10022000162F81110E94AB00EC2FF0E0EE0FFF1FA4
:10023000EA57FF4FA591B4918FB7F894EC91111143
:1002400008C0D095DE23DC938FBFDF91CF911F9143
:100250000895DE2BF8CF3FB7F89480915302909128
:100260005402A0915502B091560226B5A89B05C034
:100270002F3F19F00196A11DB11D3FBFBA2FA92F25
:10028000982F8827BC01CD01620F711D811D911D22
:1002900042E0660F771F881F991F4A95D1F708958E
:1002A0008F929F92AF92BF92CF92DF92EF92FF9286
:1002B0004B015C010E942B016B017C010E942B0110
:1002C0006C197D098E099F09683E7340810591056F
:1002D000A8F321E0821A9108A108B10888EEC80E9F
:1002E00083E0D81EE11CF11C81149104A104B10427
:1002F00029F7FF90EF90DF90CF90BF90AF909F9045
:100300008F90089508950895AF92BF92CF92DF9293
:10031000EF92FF920F931F93CF93DF936C017B01BA
:100320008B01040F151FEB015E01AE18BF08C0174B
:10033000D10759F06991D601ED91FC910190F081BE
:10034000E02DC6010995892B79F7C501DF91CF9181
:100350001F910F91FF90EF90DF90CF90BF90AF90E3
:10036000089508952091CC01260F3327331F2132A1
:100370003105ECF420911502FC0190E080E024307E
:1003800069F082E00895A091CC012191AC0144551F
:100390005E4FA40FB52FB11D2C930196861798F3CD
:1003A0008091CC01680F6093CC0180E0089581E0DA
:1003B00008951092150281E0809314021092EF01CB
:1003C00061E082E10E94FD0061E083E10E94FD00A6
:1003D000E9EBF0E080818E7F808380818D7F808358
:1003E00088E48093B80085E48093BC000895CF939F
:1003F000DF9391E09093AB018823B9F0C091B800EE
:10040000D091BA008091BC008A7B8093BC0060E0F0
:1004100082E10E94FD0060E083E10E94FD000E94F5
:10042000D901D093BA00C093B800DF91CF9108955D
:100430000895E091440280914302E81730F4F0E01F
:10044000E557FE4F808190E008958FEF9FEF08956C
:1004500090914402809143022FEF3FEF981748F4A8
:10046000E92FF0E0E557FE4F208130E09F5F909349
:100470004402C90108958091430290914402891B6E
:10048000990B0895CF92DF92EF92FF920F931F93F3
:10049000CF93DF937C01CB018A0120911B022223A1
:1004A00089F0EB016B01C40ED51ECC15DD0569F09A
:1004B0006991D701ED91FC910190F081E02DC70188
:1004C0000995F3CF642F0E94B201C801DF91CF914B
:1004D0001F910F91FF90EF90DF90CF900895CF93F1
:1004E000DF931F92CDB7DEB7698320911B022223D1
:1004F000F9F020914102203258F021E030E0FC0177
:100500003383228390E080E00F90DF91CF910895B4
:1005100080914202E82FF0E0E45EFD4F99819083E4
:100520008F5F809342028093410281E090E0ECCFA4
:1005300061E0CE0101960E94B201F7CFCF92DF9227
:10054000EF92FF920F931F93CF93DF93FC01C4812F
:1005500021E020931B02C0933C02109242021092B1
:1005600041028385682B87E592E00E946F02D0915B
:100570004102D13208F092C00E942B016B017C0134
:1005800080911502811165C082E08093150281E09F
:10059000809314028FEF8093130210921202D09373
:1005A0001102ACE1B2E0E1EFF1E080E0D81385C0E8
:1005B0001092F0018091F001CC0FC82BC093F00194
:1005C0008091EF01813009F07CC01092EF010E9410
:1005D0002B016B017C018091F0018093BB00809125
:1005E000170290911802A0911902B0911A02892B5A
:1005F0008A2B8B2B99F00E942B01009117021091EE
:1006000018022091190230911A026C197D098E0985
:100610009F090617170728073907E0F18091BC00EA
:1006200083FDD9CF85EC8093BC000E942B016B0128
:100630007C0180911502823009F445C0809113023B
:100640008F3F61F180911302803241F1809113025A
:1006500025C08091170290911802A0911902B091C3
:100660001A02892B8A2B8B2B09F48ACF0E942B012B
:1006700000911702109118022091190230911A026C
:100680006C197D098E099F09061717072807390776
:1006900008F076CF809116020E94F7011092420274
:1006A0001092410210921B02DF91CF911F910F9186
:1006B000FF90EF90DF90CF9008959D9191938F5F81
:1006C00075CF85EEB0CF8091170290911802A0915E
:1006D0001902B0911A02892B8A2B8B2B09F4A9CF0E
:1006E0000E942B010091170210911802209119020B
:1006F00030911A026C197D098E099F090617170798
:100700002807390708F095CFC5CF90E080E008951D
:10071000CF93DF938091450290914602029724F097
:100720001092460210924502C0914502D0914602B5
:10073000209781F461E089E00E94FD0061E08CE097
:100740000E94FD002196D0934602C0934502DF919E
:10075000CF91089560E08AE00E94FD0060E089E0AA
:100760000E94FD0060E088E00E94FD0060E08DE0F6
:100770000E94FD0060E08CE00E94FD0060E08BE0E4
:10078000DFCFFC0101900020E9F73197AF01481B52
:10079000590BBC0183E692E00C948401CF93DF9364
:1007A000D82FC8E06D2F661F6627661F80E00E9465
:1007B000FD00DD0F61E082E00E94FD0060E082E06C
:1007C0000E94FD00C15071F7DF91CF910895EF9223
:1007D000FF920F931F93CF93DF938C01CB012AE0FD
:1007E000E22EF12CB7010E94FA09EB01FC01E85F4F
:1007F000FE4F80810E94CE03C85FDE4F88810E9439
:10080000CE03C801B7010E94FA09EB01FC01E85FC1
:10081000FE4F80810E94CE03C85FDE4F88810E9418
:10082000CE0360E081E00E94FD0061E081E0DF91A5
:10083000CF911F910F91FF90EF900C94FD00EF92DC
:10084000FF920F931F93CF93DF93C0914502D091F6
:100850004602D7FDA3C0C933D1050CF056C060E0F5
:1008600088E00E94FD0060E08DE00E94FD0060E0F5
:1008700089E00E94FD0060E08CE00E94FD0061E0E4
:100880008AE00E94FD0061E08BE00E94FD00C091C3
:100890004502D0914602209709F080C089E390E09C
:1008A00090938A01809389018CE390E09093880172
:1008B000809387010091870110918801E090890160
:1008C000F0908A01B801C7010E94E70368EE73E067
:1008D00080E090E00E94500181E0E81AF108F09277
:1008E0008A01E09289010150110910938801009357
:1008F00087012196D0934602C0934502DF91CF91A4
:100900001F910F91FF90EF900895CA33D1050CF419
:10091000BECFCD33D1050CF059C060E08AE00E9413
:10092000FD0060E08CE00E94FD0060E088E00E9435
:10093000FD0060E08DE00E94FD0061E089E0A1CF54
:1009400060E089E00E94FD0060E08BE00E94FD0015
:1009500060E08CE00E94FD0060E08AE00E94FD0003
:1009600061E088E00E94FD0061E08DE08ECF60E0F4
:100970008AE00E94FD0060E089E00E94FD0060E0E6
:100980008BE00E94FD0060E08DE00E94FD0061E0D0
:1009900088E00E94FD0061E08CE077CFC933D1058B
:1009A00039F483E090E090938A01809389017ECFAF
:1009B000CC33D10539F4D0938A01C093890189E3FE
:1009C00090E074CFC237D10561F374CFC637D1053B
:1009D0000CF4B6CFC937D10554F2109246021092EA
:1009E000450255CFEF92FF920F931F93CF93DF9362
:1009F000C0914502D0914602D7FDA3C0CB31D105AD
:100A00000CF056C060E088E00E94FD0060E08DE0E0
:100A10000E94FD0060E089E00E94FD0060E08CE043
:100A20000E94FD0061E08AE00E94FD0061E08BE031
:100A30000E94FD00C0914502D0914602209709F026
:100A400080C08BE190E090938A01809389018EE1D0
:100A500090E0909388018093870100918701109125
:100A60008801E0908901F0908A01B801C7010E94D5
:100A7000E70368EE73E080E090E00E94500181E0BF
:100A8000E81AF108F0928A01E092890101501109F7
:100A900010938801009387012196D0934602C0935A
:100AA0004502DF91CF911F910F91FF90EF90089534
:100AB000CC31D1050CF4BECFCF31D1050CF059C0EB
:100AC00060E08AE00E94FD0060E08CE00E94FD0092
:100AD00060E088E00E94FD0060E08DE00E94FD0083
:100AE00061E089E0A1CF60E089E00E94FD0060E064
:100AF0008BE00E94FD0060E08CE00E94FD0060E061
:100B00008AE00E94FD0061E088E00E94FD0061E053
:100B10008DE08ECF60E08AE00E94FD0060E089E019
:100B20000E94FD0060E08BE00E94FD0060E08DE02F
:100B30000E94FD0061E088E00E94FD0061E08CE021
:100B400077CFCB31D10539F483E090E090938A01DF
:100B5000809389017ECFCE31D10539F4D0938A01BB
:100B6000C09389018BE190E074CFC633D10561F366
:100B700074CFCA33D1050CF4B6CFED975CF2109266
:100B800046021092450256CF0F931F93CF938C01CC
:100B9000C62F0E949E026C2F6460C8010E949E02B4
:100BA0006C2F6B7FC8010E949E0283EC90E001973E
:100BB000F1F7CF911F910F9108950F931F93CF934A
:100BC000DF938C01D62FC42F607F642B0E94C40555
:100BD00080E1D89FB00111246C2BC801DF91CF9127
:100BE0001F910F910C94C405CF93DF93CDB7DEB75F
:100BF00028970FB6F894DEBF0FBECDBF98E0E0E0B7
:100C0000F1E0DE01119601900D929A95E1F7909135
:100C10006B02981710F48FEF890F90E0880F991FDF
:100C200021E030E02C0F3D1F820F931FFC016081FB
:100C3000606840E083E692E028960FB6F894DEBF45
:100C40000FBECDBFDF91CF910C94DD0540E061E098
:100C500083E692E00E94DD058BE39FE10197F1F7C7
:100C6000089541E00E94DD0581E090E0089585ED62
:100C70008093BC008091170290911802A0911902F4
:100C8000B0911A020796A11DB11D23E0B695A79554
:100C9000979587952A95D1F72091BC0024FD03C034
:100CA0001092150208954091170250911802609118
:100CB000190270911A02452B462B472B69F30097B6
:100CC000A105B10541F02AE22A95F1F700C001978C
:100CD000A109B109E1CF809116020C94F7011F928E
:100CE0000F920FB60F9211242F933F938F939F93E0
:100CF000AF93BF9380914F0290915002A091510207
:100D0000B091520230914E0223E0230F2D3758F557
:100D10000196A11DB11D20934E0280934F02909326
:100D20005002A0935102B0935202809153029091CD
:100D30005402A0915502B09156020196A11DB11D19
:100D40008093530290935402A0935502B09356029D
:100D5000BF91AF919F918F913F912F910F900FBEB7
:100D60000F901F90189526E8230F0296A11DB11D24
:100D7000D2CF1F920F920FB60F9211242F933F9351
:100D80004F935F936F937F938F939F93AF93BF9393
:100D9000EF93FF938091B900887F803609F44AC0B1
:100DA000F0F5883209F4A7C018F5803109F49BC02A
:100DB000B8F4882309F4F9C0883009F494C0FF918D
:100DC000EF91BF91AF919F918F917F916F915F91C3
:100DD0004F913F912F910F900FBE0F901F9018953C
:100DE000883109F488C0803251F78093130214C00F
:100DF000803409F49DC040F48033B9F38833F9F6A8
:100E00008093130285ECB0C0803509F485C0883525
:100E100009F496C0883499F60E943706D0CF8839F5
:100E200009F48CC038F5883729F050F4883611F071
:100E3000803729F683E0809315021092EE0157C0A7
:100E4000883809F47BC0803919F0803809F0B7CFB1
:100E50008091EE01803208F071C0E091EE0181E0F6
:100E60008E0F8093EE018091BB00F0E0E253FE4FC5
:100E700080833DC0803B39F0E0F4803A09F479C0CA
:100E8000883A09F09CCF84E0809315021092CD013E
:100E90001092CC01E0913F02F091400209958091BF
:100EA000CC0181110FC081E08093CC011092AC0184
:100EB00009C0803C09F4A6CF883C09F4A3CF883B45
:100EC00009F07DCFE091CD0181E08E0F8093CD01BF
:100ED000F0E0E455FE4F80818093BB009091CD01FE
:100EE0008091CC0129C08091F0018093BB0085ECFA
:100EF0008093BC0064CF90911202809111029817E8
:100F000058F5E091120281E08E0F80931202F0E01A
:100F1000EF50FE4F8081E9CFE091120281E08E0F09
:100F2000809312028091BB00F0E0EF50FE4F80836F
:100F300090911202809111029817C8F285E8D8CFDB
:100F4000E091120281E08E0F809312028091BB002B
:100F5000F0E0EF50FE4F80838091140281115CCF4E
:100F600081E08093EF0184EA8093BC001092150227
:100F700026CF85EC8093BC00109215028091EE0183
:100F8000803230F4E091EE01F0E0E253FE4F108247
:100F90006091EE0170E0E0913D02F0913E028EEC36
:100FA00091E009951092EE010ACF1092130234CF0E
:100FB000E7E5F2E01382128288EE93E0A0E0B0E071
:100FC00084839583A683B78386E191E091838083B0
:100FD000E3E6F2E01382128288E291E0918380835B
:100FE00087E2848384E1818784E082871386089581
:100FF000789484B5826084BD84B5816084BD85B5F4
:10100000826085BD85B5816085BD80916E008160FF
:1010100080936E00109281008091810082608093A5
:1010200081008091810081608093810080918000A7
:101030008160809380008091B10084608093B100D2
:101040008091B00081608093B00080917A008460CC
:1010500080937A0080917A00826080937A008091F8
:101060007A00816080937A0080917A008068809312
:101070007A001092C1001092440210924302109222
:101080004202109241020E94D90182E891E09093BD
:10109000400280933F0283E891E090933E02809368
:1010A0003D021092680280916D02823018F098E043
:1010B0009093680280936B0262E370E080E090E0BE
:1010C0000E94500160916E0283E692E00E949E02AF
:1010D00068EE73E080E090E00E94500160E383E6F8
:1010E00092E00E94C405CBE4D6E4CE010197F1F76B
:1010F00060E383E692E00E94C4052197F1F760E384
:1011000083E692E00E94C40583E592E00197F1F73F
:1011100060E283E692E00E94C4056091680260622A
:1011200040E083E692E00E94DD0584E0809369025E
:1011300040E06CE083E692E00E94DD050E94260616
:1011400082E080936A0240E066E083E692E00E94DB
:10115000DD0540E062E083E692E00E94DD058BE37E
:101160009FE10197F1F788E080936E0260E083E6EB
:1011700092E00E949E0288E00E948C0089E00E941A
:101180008C008AE00E948C008BE00E948C008CE036
:101190000E948C008DE00E948C0082E00E948C00F6
:1011A00081E00E948C0080E00E948C0000E010E052
:1011B000C1E083E0E82EF12C86E00E94D40021E01B
:1011C000892B09F020E020934D0285E00E94D40095
:1011D00021E0892B09F020E020934C0287E00E9457
:1011E000D40021E0892B09F020E020934B0284E019
:1011F0000E94D40021E0892B09F020E020934A02CC
:1012000080914902811129C00E94F40580E391E098
:101210000E94C10381E00E94F40582E491E00E94F3
:10122000C10382E00E94F4058BE491E00E94C103B7
:1012300083E00E94F40587E591E00E94C10380915C
:1012400047020E94F40581E691E00E94C10364E632
:1012500070E080E090E00E9450018091490281118D
:101260007CC080914D028823F1F0809147029091DB
:1012700048020197181619062CF49093480280939F
:10128000470204C010924802109247026AE070E0E0
:1012900080E090E00E9450010115110509F48CCF07
:1012A0000E94000089CF80914C02882369F08091D0
:1012B000470290914802019683309105F4F2F09232
:1012C0004802E0924702E2CF80914B028823F1F27C
:1012D0008091470290914802009709F50E942606E6
:1012E00080E00E94F40583E691E00E94C10381E062
:1012F0000E94F4058CE691E00E94C10382E00E9406
:10130000F40586E791E00E94C10383E00E94F405A2
:101310008EE791E00E94C103C0934902B7CF8130AC
:10132000910539F410924602109245020E94F2048F
:10133000F3CF8230910539F41092460210924502A3
:101340000E941F04E9CF039709F0A0CF1092460234
:10135000109245020E948803DFCF80914A028823C1
:1013600099F160E08AE00E94FD0060E089E00E945F
:10137000FD0060E088E00E94FD0060E08DE00E94DA
:10138000FD0060E08CE00E94FD0060E08BE00E94C8
:10139000FD0080E00E94CE0380E00E94CE0380E04A
:1013A0000E94CE0380E00E94CE0360E081E00E94B4
:1013B000FD0061E081E00E94FD000E94260610927F
:1013C000490210924A0262CF8091470290914802EE
:1013D0008130910519F40E94F20458CF82309105B2
:1013E00019F40E941F0452CF039709F04FCF0E94B7
:1013F00088034CCF97FB072E16F4009407D077FD97
:1014000009D00E940E0A07FC05D03EF49095819504
:101410009F4F0895709561957F4F0895AA1BBB1B40
:1014200051E107C0AA1FBB1FA617B70710F0A61BE4
:10143000B70B881F991F5A95A9F780959095BC0105
:10144000CD010895EE0FFF1F0590F491E02D099452
:10145000F894FFCF00004000140054003F065B4F9B
:10146000666D7D077F6F000000006F0242028503FA
:1014700018023B0228021902000000003106840114
:101480008503B101312E5468616E68207669656EFE
:10149000206E686F6D00322E4E6F726D616C00337E
:1014A0002E5275736820686F757200342E57617202
:1014B0006E696E67003E00312E20487579656E00BA
:1014C000322E205468756F6E6700332E205175617F
:0A14D0006E00332E204D696E680097
:107E0000112484B714BE81FFF0D085E080938100F7
:107E100082E08093C00088E18093C10086E0809377
:107E2000C20080E18093C4008EE0C9D0259A86E02C
:107E300020E33CEF91E0309385002093840096BBD3
:107E4000B09BFECF1D9AA8958150A9F7CC24DD24C4
:107E500088248394B5E0AB2EA1E19A2EF3E0BF2EE7
:107E6000A2D0813461F49FD0082FAFD0023811F036
:107E7000013811F484E001C083E08DD089C08234E0
:107E800011F484E103C0853419F485E0A6D080C0E4
:107E9000853579F488D0E82EFF2485D0082F10E0AE
:107EA000102F00270E291F29000F111F8ED06801E7
:107EB0006FC0863521F484E090D080E0DECF843638
:107EC00009F040C070D06FD0082F6DD080E0C81688
:107ED00080E7D80618F4F601B7BEE895C0E0D1E017
:107EE00062D089930C17E1F7F0E0CF16F0E7DF06D8
:107EF00018F0F601B7BEE89568D007B600FCFDCFD4
:107F0000A601A0E0B1E02C9130E011968C91119780
:107F100090E0982F8827822B932B1296FA010C0160
:107F200087BEE89511244E5F5F4FF1E0A038BF0790
:107F300051F7F601A7BEE89507B600FCFDCF97BE46
:107F4000E89526C08437B1F42ED02DD0F82E2BD052
:107F50003CD0F601EF2C8F010F5F1F4F84911BD097
:107F6000EA94F801C1F70894C11CD11CFA94CF0C13
:107F7000D11C0EC0853739F428D08EE10CD085E9AC
:107F80000AD08FE07ACF813511F488E018D01DD067
:107F900080E101D065CF982F8091C00085FFFCCF94
:107FA0009093C60008958091C00087FFFCCF809118
:107FB000C00084FD01C0A8958091C6000895E0E648
:107FC000F0E098E1908380830895EDDF803219F02E
:107FD00088E0F5DFFFCF84E1DECF1F93182FE3DFCA
:107FE0001150E9F7F2DF1F91089580E0E8DFEE27F6
:047FF000FF270994CA
:027FFE00040479
:00000001FF
